:020000040800F2
:1000000000000120450000084100000841000008F0
:100010004100000841000008410000080000000005
:100020000000000000000000000000004100000887
:1000300041000008000000004100000841000008E5
:10004000FEE7000040F20C0140F20000C2F20001A5
:10005000C2F2000088420BD2411A6FF0030222EA7A
:1000600001010A1D40F6FC31C0F6000100F016F84F
:1000700040F2B82140F20C00C2F20001C2F20000CE
:10008000884207D2411A6FF0030222EA01010431CB
:1000900000F013F800F018F8FEE7000032B100BFDE
:1000A00011F8013B013A00F8013BF9D1704719B151
:1000B00080B5FFF7FCFF80BD704719B180B5FFF731
:1000C000F6FF80BD7047000082B000F08CFC00F0AD
:1000D000DFFB00F03DF940F20C04C2F200042046C0
:1000E00000F06BF800F007FA002861D000F0B9F9D1
:1000F000412000F0BDFC40F2100940F2500840F2EF
:1001000054074FF0000B0DF1040AC2F20009C2F2CD
:100110000008C2F2000700BF5046CDF804B000F05E
:10012000D2F948B3019939B3B4F9006094F9025097
:10013000204680224B4600F045F840281CD198F814
:1001400000002A46411C88F8001031464B4600F05A
:1001500079FA0DF103004FF4FA718DF803B000F055
:10016000DDFA48B19DF80300A0F14101C9B20329AD
:1001700098BF00F07DFC00BF082000F09DFC3846D1
:1001800000F0D4FB78680028C6D100F086F900F0B2
:1001900072FB012000F062FC41F2883000F021FC8B
:1001A000002000F05BFC4EF6602000F01AFCB3E784
:1001B000012000F053FC00BFFEE710B100210180D8
:1001C000817070478446002A4FF0000000F0BF8025
:1001D000BCF1000F00F0BB80002900F0B880002BBC
:1001E00000F0B5802DE9F04F81B0501E012707EBDC
:1001F000500A4FF0000ECDF800A000BF31F91E00EC
:10020000BCF9009040F62834B0EB0905284648BFF9
:1002100068429CF90280C0F6000434F91870082482
:1002200004EA15753C46B842B8BF0024A0EB0400B0
:100230004FEA6706A8BF043504EBE704B0EB670F8D
:10024000B8BF0026A0EB0600A8BF02353444002644
:10025000B0EBA70FA8BF012605EB060B40F6DA3579
:10026000A8BF04EBA7045FEA0B76C0F6000548BF01
:10027000644215F90B604C4404F30F0906EB0804C3
:1002800024EAE4765824582EA8BF26460EF101042D
:1002900000209442ACF800908CF8026049D201EB47
:1002A0004E00B0F9020040F62834B0EB09000746D2
:1002B000C0F6000448BF474234F91640082505EA55
:1002C00010702546A742B8BF0025A7EB050705EB30
:1002D000E4084FEA6405A8BF0430B7EB640FB8BF69
:1002E0000025A7EB0507A8BF02304544B7EBA40FD4
:1002F0004FF00007A8BF01273844A8BF05EBA405AD
:10030000040748BF6D4205EB090440F6DA35C0F634
:1003100000052D5604F30F04354425EAE575000168
:10032000582D4FF05806A8BF3546ACF800408CF861
:10033000025040EA0B0003F8010BBAF1010A0EF17A
:10034000020E7FF45BAF5DF8040BBDE8F04F704721
:1003500010B540F26004C2F2000420464FF4007170
:10036000FFF7ABFE40F26021C2F2000100200860FE
:1003700040F26421C2F2000108702821C5F6000194
:100380004A6842F003024A600A6842F001020A60C9
:100390000A6942F480420A614FF09042116821F4E8
:1003A00040211160116841F4002111600821C4F658
:1003B0000001CB6923F0F003CB61CB6943F050031C
:1003C000CB610B6843F440230B60136823F44013A4
:1003D0001360136843F400131360CA6922F4706257
:1003E000CA61CA6942F4A062CA61D1F8F82322F056
:1003F0004072C1F8F823D1F8F82342F00072C1F836
:10040000F82340F22442C4F60002136823F4702358
:100410001360136843F4A0231360D1F8002442F062
:100420004072C1F8002443F60401C4F2000140F612
:10043000013288618A6140F21712CA610A6842F08B
:1004400001020A600822C4F20202106001F10800F1
:1004500090604FF48070D460506042F2A6501060FB
:1004600010BD40F26020C2F200000021016040F2A5
:100470006420C2F20000012101700820C4F20200D1
:10048000016841F00101016043F61C00C4F2000064
:10049000016841F480610160704740F26420C2F25B
:1004A00000000021017043F61C00C4F20000016846
:1004B00021F4806101600820C4F20200016821F08B
:1004C00001010160704740F2602CC2F2000CDCF8C0
:1004D000002040F26003C2F20003012A4FF0000145
:1004E00003D0022A05D103F580730360CCF8001015
:1004F000114608467047B0B588B04420C5F60000E4
:100500000168002541F001010160D0F8D8130122F3
:1005100041F40041C0F8D8130020C5F601000C21B9
:1005200001604FF4B85141600168012441F040017D
:1005300001600DF11F0180208DF81F5000F054F86C
:100540000DF11E018A2001228DF81E5000F04CF89A
:1005500044F23600069006A98620042200F044F8F2
:1005600040F20470C0F20010059005A99520042205
:1005700000F03AF840F20E20ADF812000DF1120131
:100580008E20022200F030F81920C9F6991003904D
:1005900041F60020C0F6AB10029002A98B20082281
:1005A00000F022F840F6EA31C0F600018C20092262
:1005B00000F01AF840F6F331C0F600010D200522D4
:1005C00000F012F84FF40040ADF806000DF10601FE
:1005D0008F20022200F008F840F26521C2F20001EB
:1005E00001200C7008B0B0BD10B540F21C4CC5F62F
:1005F000000CDCF800E00824C5F601042EF40043EA
:10060000CCF8003023689B07FCD520712068C00718
:10061000FCD02079002000BF11F800E023689B0780
:10062000FCD584F804E000BF2368DB07FCD0013070
:1006300023799042F0D1DCF8000040F40040CCF87F
:10064000000010BD70B582B040F26525C2F2000511
:100650002D781C46002B18BF012404EA0506012E44
:1006600059D140F26624C2F2000445F24175E070AF
:10067000402025800125E0710020A570A180A27195
:1006800021181A5C013040280A72F9D140F21C404E
:10069000C5F6000002680821C5F6010122F40042F7
:1006A000026000BF0A689207FCD50E220A7100BFE3
:1006B0000A68D207FCD00A790A689207FCD50022A2
:1006C0000A7100BF0A68D207FCD00A79002200BF75
:1006D000A35C00BF0D68AD07FCD50B710B68DB0791
:1006E000FCD001320B79482AF2D10168022241F490
:1006F000004101604FF6FF70ADF806000DF10601F4
:100700000220FFF771FF40F6F831C0F600018320A8
:100710000322FFF769FF304602B070BDF0B587B025
:10072000044600284FF0000000F0A38040F265224C
:10073000C2F200021278002A00F09B8008090A0D1C
:10074000090B082640F21C4500278DF819208DF86A
:100750001A108DF81B000DF1190182200322C5F635
:100760000106C5F600052770FFF73EFF8DF81770EC
:10077000286820F40040286030688007FCD51220EB
:10078000307100BF3068C007FCD030793068800716
:10079000FCD50020307100BF3068C007FCD0307934
:1007A00006AB012000210DF1170200BF3768BF071B
:1007B000FCD531713768FF07FCD03779C0071F704F
:1007C0004FF000001346F1D1286840F40040286043
:1007D0009DF8170000F04200022849D1286820F453
:1007E0000040286030688007FCD51E20307100BFB3
:1007F0003068C007FCD0307930688007FCD5802095
:10080000307100BF3068C007FCD030793068800795
:10081000FCD50020307100BF3068C007FCD03079B3
:1008200000200DF10601002233689B07FCD53071D2
:100830003368DB07FCD033798B540132102AF3D1B3
:10084000286845F2417140F400402860BDF8060078
:100850009DF808204840D1B281F002010843B0FA67
:1008600080F04FEA501004BF9DF80E10217000E098
:10087000002007B0F0BD80B582B000208DF80700E1
:100880000DF1070184200122FFF7AEFE02B080BD0A
:1008900081B02C20C5F60000016841F00101016023
:1008A000416941F4007141614FF09040016821F0CD
:1008B000030101600C21C4F60001086820F0030068
:1008C00008600A6842F2084042F00102C4F20100E6
:1008D0000A60416A41F480014162016821F001012E
:1008E0000160016841F08051016000210091009990
:1008F000B1F57A7F02DA00990131F7E7016841F03A
:100900000041016001680029FCD450F8081C41F046
:10091000010140F8081C016841F00101016000BFBD
:1009200050F8081CC907FBD001B07047002857D009
:100930001021C4F60001096842F20042012340F28E
:10094000000CC4F2010223EA0101C2F2000C8CF88F
:100950000810136211684DF6F10341F004011160B3
:100960009168CFF6FF7341F0040191601168490767
:1009700003D4002B03F10103F8D1002917D5516AE4
:100980008AB2A2B147F2AA51C1F6FF7109884B1C85
:100990009BB2022B38BF40F27C6189B240F6E4433F
:1009A0005943B1FBF2F18AB2ACF8001001E0BCF897
:1009B000002040F6D8618A4201D903220BE040F6BC
:1009C00048518A4201D9022205E0B2F5486F4FF042
:1009D000000288BF0122CCF804209CE80E000EC063
:1009E000704730BF70472C20C5F60000016841F009
:1009F000010101604FF09040016821F440710160F5
:100A0000016841F4807101600421C4F600010A68A4
:100A100022F010020A60026822F44062026002685A
:100A200042F480620260086820F0200008604FF401
:100A3000801048614FF40010486140F2AE20C2F2CD
:100A400000000021017040F2B020C2F200000160FD
:100A500040F2B420C2F20000017070471821002853
:100A60004FF48010C4F6000118BF102008607047D2
:100A7000A0F14101C9B2042917D240F2AE21403899
:100A8000C2F20001087040F2B420C2F2000001215D
:100A9000017040F2B020C2F2000064210160182011
:100AA000C4F6000020210160704740F2AE20C2F27F
:100AB000000000210170704740F2AE22C2F2000235
:100AC000137883B380B540F2B02EC2F2000EDEF888
:100AD0000010814201D9081A21E040F2B42CC2F280
:100AE000000C9CF8001000200129CEF8000009D16C
:100AF0001821C4F600014FF400120A608CF80000BF
:100B000078200CE0581E010610700AD01820C4F698
:100B100000002021016001208CF800006420CEF844
:100B20000000BDE8804070470700080009000A0087
:100B30000B000C000D000E0010001100130015003A
:100B4000170019001C001F002200250029002D009D
:100B5000320037003C00420049005000580061005C
:100B60006B00760082008F009D00AD00BE00D100BA
:100B7000E600FD0017013301510173019801C10125
:100B8000EE01200256029202D4021C036C03C3033E
:100B900024048E04020583051006AB0656071208CE
:100BA000E008C309BD0AD00BFF0C4C0EBA0F4C1164
:100BB0000713EE1406175419DC1BA51EB6211525C4
:100BC000CA28DF2C5B314B36B93BB24144487E4FDB
:100BD00071572F60CE696274FF7FFFFFFFFF020431
:100BE0000608FFFFFFFF02040608002004100000B3
:0C0BF00048020106C02DD4000002800065
:0C0BFC00740E0000020000000000000069
:0400000508000045AA
:00000001FF
