:020000040800F2
:10000000000001203D010008390100083901000805
:10001000390100083901000839010008000000001A
:10002000000000000000000000000000390100088E
:1000300039010008000000003901000839010008FA
:1000400039010008390100083901000839010008A8
:100050003901000839010008390100083901000898
:100060003901000839010008390100089506000827
:100070003901000839010008390100083901000878
:100080003901000839010008390100083901000868
:100090003901000839010008390100083901000858
:1000A0003901000839010008390100083901000848
:1000B0003901000839010008390100083901000838
:1000C0003901000839010008390100083901000828
:1000D0003901000839010008390100083901000818
:1000E0003901000839010008390100083901000808
:1000F00039010008390100083901000839010008F8
:1001000039010008390100083901000839010008E7
:1001100039010008390100083901000839010008D7
:1001200039010008390100083901000839010008C7
:08013000390100083901000843
:10013800FEE7000040F20C0140F20000C2F20001AC
:10014800C2F2000088420BD2411A6FF0030222EA81
:1001580001010A1D40F69861C0F6000100F016F88A
:1001680040F2B82140F20C00C2F20001C2F20000D5
:10017800884207D2411A6FF0030222EA01010431D2
:1001880000F013F800F018F8FEE7000032B100BFE5
:1001980011F8013B013A00F8013BF9D1704719B158
:1001A80080B5FFF7FCFF80BD704719B180B5FFF738
:1001B800F6FF80BD7047000082B044F200010820BD
:1001C800C5F600010222C5F600000A60D0F8F8134F
:1001D8004FF0B04241F40071C0F8F813136847F6C5
:1001E8006111CFF6FE7143F4803313600B4600BFF4
:1001F8001768BF0303D4002B03F10103F8D1002FC4
:1002080023D540F21362C3F2000242604FF0B042BD
:10021800136843F0807313600B4600BF1768BF0173
:1002280003D4002B03F10103F8D1002F0DD5026888
:1002380042F00302026000BF0268D24312F00C0FC2
:1002480003D0002901F10101F6D100F016FD00F0FC
:1002580069FC00F03DF940F20C04C2F200042046AB
:1002680000F06BF800F02CFA002861D000F0C4F917
:10027800412000F047FD40F2100940F2500840F2DA
:1002880054074FF0000B0DF1040AC2F20009C2F244
:100298000008C2F2000700BF5046CDF804B000F0D5
:1002A800DDF948B3019939B3B4F9006094F9025003
:1002B800204680224B4600F045F840281CD198F88B
:1002C80000002A46411C88F8001031464B4600F0D1
:1002D800C5FA0DF103004FF4FA718DF803B000F080
:1002E8003DFB48B19DF80300A0F14101C9B20329C3
:1002F80098BF00F007FD00BF082000F027FD384632
:1003080000F05EFC78680028C6D100F091F900F092
:10031800FBFB012000F0ECFC41F2883000F0ABFC64
:10032800002000F0E5FC4EF6602000F0A4FCB3E7E6
:10033800012000F0DDFC00BFFEE710B100210180C4
:10034800817070478446002A4FF0000000F0BF809B
:10035800BCF1000F00F0BB80002900F0B880002B32
:1003680000F0B5802DE9F04F81B0501E012707EB52
:10037800500A4FF0000ECDF800A000BF31F91E0062
:10038800BCF9009040F6C454B0EB0905284648BFB4
:1003980068429CF90280C0F6000434F918700824F9
:1003A80004EA15753C46B842B8BF0024A0EB040027
:1003B8004FEA6706A8BF043504EBE704B0EB670F04
:1003C800B8BF0026A0EB0600A8BF023534440026BB
:1003D800B0EBA70FA8BF012605EB060B40F6766524
:1003E800A8BF04EBA7045FEA0B76C0F6000548BF78
:1003F800644215F90B604C4404F30F0906EB08043A
:1004080024EAE4765824582EA8BF26460EF10104A3
:1004180000209442ACF800908CF8026049D201EBBD
:100428004E00B0F9020040F6C454B0EB090007468C
:10043800C0F6000448BF474234F91640082505EACB
:1004480010702546A742B8BF0025A7EB050705EBA6
:10045800E4084FEA6405A8BF0430B7EB640FB8BFDF
:100468000025A7EB0507A8BF02304544B7EBA40F4A
:100478004FF00007A8BF01273844A8BF05EBA40523
:10048800040748BF6D4205EB090440F67665C0F6DF
:1004980000052D5604F30F04354425EAE5750001DF
:1004A800582D4FF05806A8BF3546ACF800408CF8D8
:1004B800025040EA0B0003F8010BBAF1010A0EF1F1
:1004C800020E7FF45BAF5DF8040BBDE8F04F704798
:1004D800B0B540F26005C2F2000528464FF400713D
:1004E800FFF763FE40F26021C2F2000100200860BD
:1004F80040F26421C2F2000108704821C5F60001EB
:100508004A684FF0904342F003024A600A6842F09A
:1005180005020A600A6942F480420A610821C4F2AD
:1005280002010922C1F8F8271A6822F440221A6049
:100538001A6842F400221A600822C4F60002D4693C
:1005480024F0F004D461D46944F05004D4611468F0
:1005580044F4402414601C6824F440141C601C6893
:1005680044F400141C60D36923F47063D361D36925
:1005780043F4A063D361D2F8F83323F04073C2F890
:10058800F833D2F8F83343F00073C2F8F83340F286
:100598002443C4F600031C6824F470241C601C68FF
:1005A80044F4A0241C60D2F8003443F04073C2F82D
:1005B800003443F60402C4F2000240F601339061AD
:1005C800936140F21713D361136843F0010313607A
:1005D800086002F1080088604FF48070CD604860C0
:1005E80042F2A65008604EF20010CEF200000168F8
:1005F80041F400610160B0BD40F26020C2F2000029
:100608000021016040F26420C2F200000121017063
:100618000820C4F20200016841F00101016043F6BC
:100628001C00C4F20000016841F480610160704759
:1006380040F26420C2F200000021017043F61C0061
:10064800C4F20000016821F4806101600820C4F24E
:100658000200016821F001010160704740F2602C3E
:10066800C2F2000CDCF8002040F26003C2F2000382
:10067800012A4FF0000103D0022A05D103F5807347
:100688000360CCF800101146084670470420C4F2F5
:10069800020050F8041C4A0740F26022C2F200022D
:1006A80003D504230360012313608B0742BF022391
:1006B80003601360090744BF082101607047000008
:1006C800B0B588B06420C5F60000016841F00101AA
:1006D800016040F29041C5F600010A6842F4004208
:1006E8000A6047F66111CFF6FE7100BFD0F8B0235B
:1006F800920703D5002901F10101F7D10020C5F6C1
:1007080001000C2101604FF4B851416001680025D7
:1007180041F0400101600DF11F01802001228DF898
:100728001F50012400F054F80DF11E018A20012207
:100738008DF81E5000F04CF844F23600069006A9D9
:100748008620042200F044F840F20470C0F2001041
:10075800059005A99520042200F03AF840F20E20F1
:10076800ADF812000DF112018E20022200F030F8CF
:100778001920C9F69910039041F60020C0F6AB1075
:10078800029002A98B20082200F022F840F6866128
:10079800C0F600018C20092200F01AF840F68F619B
:1007A800C0F600010D20052200F012F84FF40040B9
:1007B800ADF806000DF106018F20022200F008F8BE
:1007C80040F26521C2F2000101200C7008B0B0BDF2
:1007D800B0B547F6611ECFF6FE7E40F2144CC5F662
:1007E800000C7346DCF80040A40703D5002B03F186
:1007F8000103F7D1DCF87C400823C5F6010324F493
:100808000044CCF87C4000BF1C68A407FCD51871D4
:100818001868C007FCD01879002000BF0C5C00BF26
:100828001D68AD07FCD51C711C68E407FCD00130BD
:100838001C799042F2D1DCF87C0040F40040CCF8FE
:100848007C0000BFDCF80000800758BFB0BDBEF1D7
:10085800000F0EF1010EF5D1B0BD0000F0B581B06A
:1008680040F26526C2F2000636781D46002B18BFF6
:10087800012505EA0607012F6DD140F26624C2F270
:10088800000445F24175E070402025800125E071A3
:100898000020A570A180A27121181A5C013040289F
:1008A8000A72F9D147F66110CFF6FE7040F2144192
:1008B800C5F60001024600BF0B689B0703D5002A56
:1008C80002F10102F8D1CB6F0822C5F6010223F428
:1008D8000043CB6713689B07FCD50E23137100BF39
:1008E8001368DB07FCD0137913689B07FCD500233A
:1008F800137100BF1368DB07FCD01379002300BF16
:10090800E55C00BF1668B607FCD515711668F607D2
:10091800FCD001331679482BF2D1CA6F42F4004259
:10092800CA6700BF0A68920703D5002800F10100D2
:10093800F8D14FF6FF70ADF802000DF10201022068
:100948000222FFF745FF40F69461C0F600018320BC
:100958000322FFF73DFF384601B0F0BD2DE9F04115
:1009680086B0804600284FF0000000F0CA8040F2B0
:100978006522C2F200021278002A00F0C28008093B
:100988000A0D090B47F6611540F2144600248DF84C
:1009980015208DF816108DF817000DF1150182201D
:1009A8000322CFF6FE75C5F6000688F80040FFF76B
:1009B8000FFF28468DF813403168890703D50028B2
:1009C80000F10100F8D1F16F0820C5F6010021F40B
:1009D8000041F16701688907FCD51221017100BF48
:1009E8000168C907FCD0017901688907FCD5002195
:1009F800017100BF0168C907FCD0017905AB01216D
:100A080000220DF1130400BF0768BF07FCD502716F
:100A18000768FF07FCD00779C9071F704FF000016E
:100A28002346F1D1F16F41F40041F167294600BF37
:100A38003268920703D5002901F10101F8D19DF828
:100A4800131001F0420102295AD12946326892074F
:100A580003D5002901F10101F8D1F16F21F400411A
:100A6800F16700BF01688907FCD51E21017100BF2D
:100A78000168C907FCD0017901688907FCD5802184
:100A8800017100BF0168C907FCD0017901688907B5
:100A9800FCD50021017100BF0168C907FCD00179AC
:100AA80000210DF1020200230768BF07FCD5017180
:100AB8000768FF07FCD00779D7540133102BF3D10F
:100AC800F06F40F40040F0673068800703D5002DD0
:100AD80005F10105F8D1BDF802009DF8042045F2A2
:100AE80041714840D1B281F002010843B0FA80F068
:100AF8004FEA501004BF9DF80A1088F8001000E073
:100B0800002006B0BDE8F08180B582B000208DF8E5
:100B180007000DF1070184200122FFF759FE02B0FA
:100B280080BD000081B04C20C5F60000016841F08E
:100B380001010160416941F4007141614FF0904049
:100B4800016821F0030101600C21C4F60001086866
:100B580020F0030008600A6842F2084042F00102EF
:100B6800C4F201000A60416A41F4800141620168EF
:100B780021F001010160016841F08051016000210C
:100B880000910099B1F57A7F02DA00990131F7E70F
:100B9800016841F00041016001680029FCD450F867
:100BA800081C41F0010140F8081C016841F00101EE
:100BB800016000BF50F8081CC907FBD001B070479E
:100BC800002857D01021C4F60001096842F20042FB
:100BD800012340F2000CC4F2010223EA0101C2F22F
:100BE800000C8CF80810136211684DF6F10341F0FF
:100BF800040111609168CFF6FF7341F00401916020
:100C08001168490703D4002B03F10103F8D1002927
:100C180017D5516A8AB2A2B147F2AA51C1F6FF713B
:100C280009884B1C9BB2022B38BF40F27C6189B209
:100C380040F6E4435943B1FBF2F18AB2ACF8001034
:100C480001E0BCF8002040F6D8618A4201D90322AD
:100C58000BE040F648518A4201D9022205E0B2F57C
:100C6800486F4FF0000288BF0122CCF804209CE8AE
:100C78000E000EC0704730BF70474C20C5F600000C
:100C8800016841F0010101604FF09040016821F4D2
:100C980040710160016841F4807101600421C4F66B
:100CA80000010A6822F010020A60026822F4406219
:100CB8000260026842F480620260086820F0200046
:100CC80008604FF4801048614FF40010486140F20A
:100CD800AE20C2F200000021017040F2B020C2F242
:100CE8000000016040F2B420C2F2000001707047B9
:100CF800182100284FF48010C4F6000118BF1020F6
:100D080008607047A0F14101C9B2042917D240F226
:100D1800AE214038C2F20001087040F2B420C2F29D
:100D280000000121017040F2B020C2F200006421ED
:100D380001601820C4F6000020210160704740F2CD
:100D4800AE20C2F2000000210170704740F2AE22CE
:100D5800C2F20002137883B380B540F2B02EC2F21B
:100D6800000EDEF80010814201D9081A21E040F295
:100D7800B42CC2F2000C9CF8001000200129CEF817
:100D8800000009D11821C4F600014FF400120A60CE
:100D98008CF8000078200CE0581E010610700AD06C
:100DA8001820C4F600002021016001208CF8000002
:100DB8006420CEF80000BDE88040704707000800B6
:100DC80009000A000B000C000D000E0010001100B5
:100DD80013001500170019001C001F002200250031
:100DE80029002D00320037003C0042004900500025
:100DF800580061006B00760082008F009D00AD00F6
:100E0800BE00D100E600FD00170133015101730156
:100E18009801C101EE01200256029202D4021C037D
:100E28006C03C30324048E04020583051006AB0675
:100E380056071208E008C309BD0AD00BFF0C4C0E78
:100E4800BA0F4C110713EE1406175419DC1BA51E14
:100E5800B6211525CA28DF2C5B314B36B93BB24188
:100E680044487E4F71572F60CE696274FF7FFFFF41
:100E7800FFFF02040608FFFFFFFF02040608002028
:100E88000410000048020106C02DD40000028000B2
:0C0E9800740E00000200000000000000CA
:040000050800013DB1
:00000001FF
